:020000040800F2
:10000000503A0020C1010008D9250008F10200087B
:10001000591E0008110900084134000800000000C2
:10002000000000000000000000000000412900085E
:10003000C909000800000000DB2500084529000868
:10004000DB010008DB010008DB010008DB01000820
:10005000DB010008DB010008DB010008DB01000810
:10006000DB010008DB010008DB010008DB01000800
:10007000DB010008DB010008DB010008DB010008F0
:10008000DB010008DB010008DB010008DB010008E0
:10009000DB010008DB010008DB010008CB090008D8
:1000A000DB010008DB010008DB010008DB010008C0
:1000B000352B0008DB010008DB010008DB0100082C
:1000C000DB010008DB010008DB010008DB010008A0
:1000D000DB01000805320008DB01000815320008CA
:1000E000DB010008DB010008DB010008DB01000880
:1000F000DB010008DB010008DB010008DB01000870
:10010000DB010008DB010008DB010008DB0100085F
:10011000DB010008DB010008DB010008DB0100084F
:10012000DB010008DB010008DB010008DB0100083F
:10013000DB010008DB010008DB010008DB0100082F
:10014000DB010008DB010008DB010008DB0100081F
:10015000DB010008DB010008DB010008DB0100080F
:10016000DB010008DB010008DB010008DB010008FF
:10017000DB010008DB010008DB01000800000000D3
:10018000DB010008DB010008DB010008DB010008DF
:10019000DB010008DB010008DB010008DB010008CF
:1001A000DB010008DB010008DB010008DFF80CD0F0
:1001B00000F08CF80048004709480008503A002039
:1001C0000648804706480047FEE7FEE7FEE7FEE7F1
:1001D000FEE7FEE7FEE7FEE7FEE7FEE7D12A0008BE
:1001E000AD0100082DE9F05F0546002092469B46D0
:1001F00088460646814640241BE02846414647463D
:10020000224600F053F853465A46C01A914110D383
:1002100011461846224600F03AF82D1A67EB0108FD
:100220004F4622460120002100F031F817EB00096B
:100230004E41201EA4F10104DFDC484631462A4627
:100240004346BDE8F09F40EA01039B0703D009E065
:1002500008C9121F08C0042AFAD203E011F8013BB2
:1002600000F8013B521EF9D27047D2B201E000F80B
:10027000012B491EFBD270470022F6E710B513464A
:100280000A4604461946FFF7F0FF204610BD202A13
:1002900004DB203A00FA02F1002070479140C2F1DD
:1002A000200320FA03F3194390407047202A04DB0F
:1002B000203A21FA02F00021704721FA02F3D040DF
:1002C000C2F120029140084319467047064C074D81
:1002D00006E0E06840F0010394E807009847103416
:1002E000AC42F6D3FFF766FFD04C0008F04C000894
:1002F0001EF0040F0CBFEFF30880EFF3098001F04C
:10030000F1BB000000B587B000BF002001902E486F
:10031000006840F001002C4908600846006800F0C1
:100320000100019000BF00BF00BF002001902648DF
:100330000838006840F0080023490839086008467A
:10034000006800F00800019000BF00BF00BF00205F
:1003500001900846006840F01000086008460068F8
:1003600000F01000019000BF00BF00BF002001900E
:100370000846006840F0400008600846006800F049
:100380004000019000BF00BF0220039001200490B4
:10039000032005900C2006904CF23370029002A9C5
:1003A0000A4800F0C5FB4FF68070029002A9084889
:1003B00000F0BEFB40F20320029002A9044800F0C6
:1003C000B7FB07B000BD000038380240000C024007
:1003D0000010024010B586B0044641F28830012377
:1003E000154A4021CDE90040144804F045F800BF0B
:1003F000002000901248006840F01000104908608A
:100400000846006800F01000009000BF00BF0D48D3
:100410000290202001900220039001A90A4800F0D8
:1004200087FB00220621172000F0FDFC172000F0BA
:10043000EAFC06B010BD00000004014000080240C4
:1004400030380240000021100010024000B59BB07F
:10045000502107A8FFF710FF1C216846FFF70CFF8B
:100460004FF020400790174808900320009000208C
:100470000190062002900120039000200490059036
:1004800006900220099000210A910B9120210C91E5
:1004900000210D910E911091C10211910021129134
:1004A000139114911591169117916A46694607A800
:1004B00001F06EF818B1DE2103A000F08BFA1BB03A
:1004C00000BD0000040100A02E2E5C2E2E5C557392
:1004D00065725C6273705C7372635C6273705F669A
:1004E0006D635F6164373630362E630000B500F00F
:1004F00063F8002222E0134830F8121012484388B3
:10050000083020F8131008384088401C80B20E498B
:100510004880B0F5006F01DB002048800A488088E1
:10052000B0F5006F05DA08488088401C06498880CD
:1005300002E0012004498871501CC2B2082ADADBAB
:1005400000BD0000A6210020B621002000202AE0E6
:10055000164931F81010164A22F810101349891E56
:10056000497879B9114931F8101041F2883211FBFC
:1005700002F147F6FF7291FBF2F109B20D4A22F83F
:1005800010100EE0094931F8101042F2107211FB00
:1005900002F147F6FF7291FBF2F109B2054A22F827
:1005A0001010411CC8B20828D2DB7047A6210020D9
:1005B00050000020400000201448008800B2144978
:1005C00048801248008801B2114881800F48008895
:1005D00001B20F48C1800D48008801B20C4801816A
:1005E0000A48008801B20A4841810848008801B2DF
:1005F000074881810548008801B20548C181034848
:10060000008801B202480182704700000030006497
:10061000A421002010B500214FF0807001F04CFAA9
:100620000121080601F048FA0121080601F044FA08
:100630000121080601F040FA0121080601F03CFA08
:1006400000214FF0807001F037FA10BD10B504465C
:1006500044B900200749487000214FF0007001F0B4
:100660002BFA06E00120034948700121400601F001
:1006700023FA10BDA421002010B504463B480470A5
:10068000072C5CD2DFE804F05C041322303F4D00FD
:1006900000214FF4004001F00FFA00214FF4804098
:1006A00001F00AFA0121480301F006FA5BE000219B
:1006B0004FF4004001F000FA0121880301F0FCF939
:1006C00000214FF4005001F0F7F94CE000214FF405
:1006D000004001F0F1F90121880301F0EDF9012159
:1006E000480301F0E9F93EE00121C80301F0E4F913
:1006F00000214FF4804001F0DFF900214FF4005059
:1007000001F0DAF92FE00121C80301F0D5F9002149
:100710004FF4804001F0D0F90121480301F0CCF9F9
:1007200021E00121C80301F0C7F90121880301F08C
:10073000C3F900214FF4005001F0BEF913E000BFEF
:1007400000200A49087000214FF4004001F0B4F97C
:1007500000214FF4804001F0AFF900214FF4005028
:1007600001F0AAF900BF00BF10BD0000A4210020C5
:1007700010B500224021094800F0E8FA002240218B
:10078000064800F0E3FA00224021044800F0DEFAB7
:1007900001224021014800F0D9FA10BD00080240B2
:1007A00010B5044600F010F8FFF734FFFFF7E0FF44
:1007B0000020044908804880888088712046FFF71F
:1007C00009FE10BDB621002000B587B015480068AD
:1007D00020F008001349086000BF00200190114874
:1007E0001038006840F010000E49103908600846C3
:1007F000006800F01000019000BF00BF01200390CE
:1008000003200590002004902020029002A90648B1
:1008100000F08EF901224021044800F097FA07B059
:1008200000BD0000403802400010024000080240B5
:1008300000200149087370470E1100201CB5314893
:10084000007830B12F48808818B12E48007B0128ED
:1008500000D11CBD2B484078E8B92A488088002880
:100860004DDD28480089401C80B22649088149880E
:10087000884244DB002040F2DC510123224ACDE9CA
:1008800000109115214803F0F7FD00201D49088153
:100890000120487033E01B48407801282FD11948C7
:1008A0000089401C80B2174908818988884226DB6C
:1008B0001448C088002812DD12484089401C80B2CC
:1008C00010494881C988884202DB00200D49087020
:1008D0000C48007818B900200A498880B9E7002040
:1008E00008490881487041F2883040F2DC51012308
:1008F000054ACDE900109115044803F0BDFD00BF85
:10090000A7E700000E110020000001400000024097
:1009100000BFFEE770B502460C46FF25FF2309E045
:1009200012F8010B80EA05010648405C80EA0305E5
:100930000548435C201EA4F10106B4B2F0D143EA9D
:10094000052070BDB64A0008B64B000810B5044635
:100950000CB9124810BD012C01D10020FAE7022C7D
:1009600001D10F48F6E7032C01D10020F2E7042C57
:1009700001D10020EEE7052C01D10020EAE7062C8A
:1009800001D10020E6E7072C01D10020E2E740F288
:10099000111104A000F01EF80020DBE74C1100202C
:1009A000781900202E2E5C2E2E5C557365725C62C9
:1009B00073705C7372635C6273705F756172745F95
:1009C0006669666F2E630000704710B5202000F046
:1009D000A1F810BD01B9704700BFFEE770B504462D
:1009E0001D460023B5F5804F13D154F822300C4832
:1009F0000340D1E9000640EA06108E6840EA06206E
:100A00008E8940EA06408E693043034344F8223021
:100A100003E06FF0704044F82200002070BD000039
:100A20000000F0CF10B502460023086852F82030CD
:100A300018480340D1E901042043CC6820430C69E5
:100A400020434C6920438C692043CC6920430C6AC5
:100A500020434C6A20438C6A2043CC6A2043CC6BF1
:100A600020430C6B20434C6B2043034388680828C9
:100A700001D143F04003086842F82030486BB0F5DC
:100A8000801F05D1086818B110684C6B20431060B6
:100A9000002010BD8000E0FF30B503461446002260
:100AA000601C53F8202002F04042D1E9000540EAE2
:100AB00005108D6840EA05208D8940EA0545088AC1
:100AC000401E45EA0055087D801E45EA00608D699C
:100AD00028430243601C43F82020186800F480106B
:100AE000B0F5801F07D1586820F47002088A401EB4
:100AF00042EA00525A60002030BD00000120014946
:100B0000086070470004274210B50446FFF7EEFC6A
:100B100010BD000010B5044604480068204020B114
:100B2000024804602046FFF7EFFF10BD143C01406F
:100B3000F8B502460B460025002400200021E6E01F
:100B4000012606FA01F51E6806EA0504AC4273D1D7
:100B50005E68022E02D05E68122E13D1CF0802F119
:100B6000200656F827004E07F70E0F26BE40B0436A
:100B70004F07FF0E1E69BE403043CF0802F120062A
:100B800046F8270010684F000326BE40B0431E7988
:100B900006F003064F00BE40304310605E68012E31
:100BA00008D05E68022E05D05E68112E02D05E6805
:100BB000122E13D190684F000326BE40B0434F0061
:100BC000DE68BE4030439060506801268E40B043DE
:100BD0001E79C6F300168E4030435060D0684F0037
:100BE0000326BE40B0434F009E68BE403043D060F5
:100BF0005E6806F08056B6F1805FA8D100BF00267F
:100C00000096454E366846F48046434F3E603E4669
:100C1000366806F48046009600BF00BF3F4E8F083E
:100C200056F827008E07370F0F26BE40B0433C4EC4
:100C3000B24202D100262EE068E03A4EB24201D123
:100C4000012628E0384EB24201D1022623E0374E79
:100C5000B24201D103261EE0354EB24201D1042634
:100C600019E0344EB24201D1052614E0324EB242B0
:100C700001D106260FE0314EB24201D107260AE02B
:100C80002F4EB24201D1082605E02E4EB24201D1CC
:100C9000092600E00A268F073F0FBE4030431F4E53
:100CA0008F0846F82700284E3068A0435E6806F497
:100CB0008036B6F5803F00D12043234E3060361D8C
:100CC0003068A0435E6806F40036B6F5003F00D1F8
:100CD00020431D4E361D3060361D3068A0435E68CF
:100CE00006F48016B6F5801F00D12043164E083654
:100CF0003060361D3068A0435E6806F40016B6F515
:100D0000001F00D12043104E0C363060491C1029C2
:100D1000FFF416AFF8BD0000443802400838014027
:100D2000000002400004024000080240000C0240A3
:100D3000001002400014024000180240001C024053
:100D40000020024000240240003C01400AB18161C1
:100D500001E00B04836170470148006870470000A0
:100D60002800002003480068034909780844014925
:100D700008607047280000203000002010B50D48A2
:100D8000006840F400700B4908600846006840F4B1
:100D9000806008600846006840F4807008600320A6
:100DA00000F080F80F2000F007F800F02BF800208A
:100DB00010BD0000003C024070B504460E480078AB
:100DC0004FF47A71B1FBF0F00C490968B1FBF0F512
:100DD000284600F00AFC08B1012070BD102C07D293
:100DE00000222146501E00F01EF80548046001E074
:100DF0000120F2E70020F0E730000020340000205E
:100E00002C000020704701460846002809DB00F04E
:100E10001F0301229A4043099B0003F1E023C3F81A
:100E2000002100BF70472DE9F05F80460D46164651
:100E3000002702F017FB074639462A46334601F0E1
:100E40000700C0F1070ABAF1040F02D94FF0040AF3
:100E500001E0C0F1070AD14600F1040ABAF1070F18
:100E600002D24FF0000A01E0A0F1030AD4464FF08D
:100E7000010A0AFA09FAAAF1010A0AEA020A0AFAB6
:100E80000CFA4FF0010B0BFA0CFBABF1010B0BEA68
:100E9000030B4AEA0B042146404602F0EBFABDE898
:100EA000F09F000000BF00F00702064B19684FF6E4
:100EB000FF031940044B0B4343EA0221014B196025
:100EC00000BF70470CED00E00000FA0570B5044665
:100ED0000D460CB9012070BD5848006800F00F00A5
:100EE000A84209D255490D700846006800F00F006D
:100EF000A84201D00120EEE7207800F0020002288D
:100F00001DD1207800F00400042805D14C48006869
:100F100040F4E0504A490860207800F008000828B2
:100F200005D14748006840F460404549086044489E
:100F3000006820F0F000A16808434149086020786B
:100F400000F00100A8B36068012807D13C480838C8
:100F50000068C0F34040B8B90120BCE760680228CF
:100F600002D06068032807D1354808380068C0F30C
:100F7000406048B90120AEE7314808380068C0F346
:100F8000400008B90120A6E72D48006820F00300C2
:100F9000616808432A490860FFF7DEFE064609E05B
:100FA000FFF7DAFE801B41F28831884202D9032024
:100FB00091E707E02248006800F00C006168B0EBA0
:100FC000810FEDD11D48006800F00F00A84209D93B
:100FD0001A490D700846006800F00F00A84201D0C1
:100FE000012078E7207800F00400042807D1144895
:100FF000006820F4E050E168084311490860207857
:1010000000F00800082808D10D48006820F460406E
:10101000216940EAC1000A49086000F03DF808492A
:101020000968C1F30311074A515CC84006490860CA
:101030000F20FFF7C1FE00204DE70000003C0240FA
:1010400008380240B64C000834000020014800680F
:10105000704700003400002000B5FFF7F7FF044997
:101060000968C1F38221034A515CC84000BD0000F9
:1010700008380240C64C000800B5FFF7E7FF0449F6
:101080000968C1F34231034A515CC84000BD000009
:1010900008380240C64C00082DE9F047002400251E
:1010A0000026A1462548006800F00C0020B1042865
:1010B00005D008283AD105E0DFF8849039E0DFF860
:1010C000849036E01D48001F006800F03F041B4874
:1010D000001F006800F4800078B11A481749091F02
:1010E0000968C1F38811A0FB017001462246002364
:1010F0003846FFF777F805460EE011480F49091FFB
:101100000968C1F38811A0FB017001462246002343
:101110003846FFF767F805460848001F0068C0F327
:101120000140401C4600B5FBF6F902E0DFF81090E4
:1011300000BF00BF4846BDE8F08700000838024005
:101140000024F40000127A00F8B504460CB901201E
:10115000F8BD207800F00100002874D0F94800683C
:1011600000F00C0004280DD0F648006800F00C00D8
:10117000082813D1F348001F006800F48000B0F580
:10118000800F0BD1EF4808380068C0F340400028BA
:1011900059D06068002856D10120D9E700BF6068A7
:1011A000B0F5803F08D1E7480838006840F4803047
:1011B000E449083908601EE06068B0F5A02F0DD141
:1011C000E0480838006840F48020DE4908390860AB
:1011D0000846006840F4803008600CE0D9480838C0
:1011E000006820F48030D749083908600846006854
:1011F00020F48020086000BF606890B1FFF7ACFD6C
:10120000054606E0FFF7A8FD401B642801D903202E
:101210009EE7CC4808380068C0F340400028F1D071
:1012200011E0FFF799FD054606E0FFF795FD401B2D
:10123000642801D903208BE7C24808380068C0F34E
:1012400040400028F1D1207800F0020002285FD150
:10125000BC48006800F00C0058B1BA48006800F0C3
:101260000C0008281CD1B748001F006800F480005B
:10127000B0B9B44808380068C0F3400020B1E06855
:10128000012801D0012063E7AE480838006820F04B
:10129000F800216940EAC100AA490839086037E02E
:1012A000E06800B30120A8490860FFF755FD054636
:1012B00006E0FFF751FD401B022801D9032047E754
:1012C000A04808380068C0F340000028F1D09D48CD
:1012D0000838006820F0F800216940EAC100994907
:1012E0000839086014E0002097490860FFF734FDD2
:1012F000054606E0FFF730FD401B022801D9032018
:1013000026E7904808380068C0F340000028F1D173
:10131000207800F0080008282CD16069A8B10120CD
:101320008A490860FFF718FD054606E0FFF714FD3F
:10133000401B022801D903200AE782486C3000686C
:10134000C0F340000028F1D014E000207F4908607D
:10135000FFF702FD054606E0FFF7FEFC401B0228F2
:1013600001D90320F4E677486C300068C0F34000F0
:101370000028F1D1207800F00400042870D1002664
:1013800070483830006800F0805090B900BF0020ED
:1013900000906C483830006840F08050694938311E
:1013A00008600846006800F08050009000BF00BF51
:1013B00001266748006800F48070B0B9644800688E
:1013C00040F4807062490860FFF7C6FC054606E0FD
:1013D000FFF7C2FC401B022801D90320B8E65C4895
:1013E000006800F480700028F2D000BFA0680128D7
:1013F00008D154486830006840F001005149683114
:1014000008601DE0A06805280DD14E4868300068CE
:1014100040F004004B49683108600846006840F01D
:10142000010008600CE047486830006820F00100C7
:101430004449683108600846006820F004000860EC
:1014400000BFA068A8B1FFF787FC054609E0FFF7D9
:1014500083FC401B41F28831884202D9032077E6A1
:1014600026E0384868300068C0F340000028EED01D
:1014700013E0FFF771FC054608E0FFF76DFC401B29
:1014800041F28831884201D9032061E62D48683055
:101490000068C0F340000028EFD1012E07D1294891
:1014A0003830006820F0805026493831086000BF8D
:1014B000A069B8B32348006800F00C0008285ED08B
:1014C000A069022846D100201F490866FFF744FCA6
:1014D000054606E0FFF740FC401B022801D9032027
:1014E00036E6184808380068C0F340600028F1D19B
:1014F000D4E907010843616A40EA81110122A06A28
:10150000C2EB500041EA00412C20005D41EA00603E
:101510000C49091F086001200B490866FFF71CFCF5
:10152000054607E02DE0FFF717FC401B022801D914
:1015300003200DE6034808380068C0F34060002827
:10154000F1D01EE00838024000004742800E4742BA
:101550000070004000200C490866FFF7FDFB0546BF
:1015600006E0FFF7F9FB401B022801D90320EFE555
:1015700006480068C0F340600028F2D101E0012075
:10158000E6E50020E4E500000000474200380240A4
:1015900070B504460E4615460CB9012070BD94F88E
:1015A000490028B9002084F84800204600F01CF8C3
:1015B00004F108012068FFF735FA3146A268206877
:1015C000FFF76AFA2946236BD4E90102FFF706FA0E
:1015D000A168206850F8210040F00100A26821684D
:1015E00041F822000020D9E7704770B5044625462F
:1015F000681EB0F1807F01D301200FE0681E4FF01C
:10160000E02148610F214FF0FF3001F033FF00204F
:101610004FF0E021886107200861002070BD10B5FF
:1016200004460CB9012010BD94F83D0028B90020F3
:1016300084F83C00204600F00CF8022084F83D00BD
:10164000211D206801F0D0FA012084F83D0000201F
:10165000E9E770470146022081F83D00086880688C
:1016600000F00702062A05D00868006840F0010073
:101670000B681860012081F83D000020704770B5AC
:1016800004460D46164600BF94F83C00012801D1DF
:10169000022070BD012084F83C0000BF022084F8C5
:1016A0003D0036B1042E1BD0082E31D00C2E5ED159
:1016B00045E02946206801F015FB2068806940F06C
:1016C0000800216888612068806920F00400216892
:1016D000886120688069296908432168886147E03A
:1016E0002946206801F036FB2068806940F40060DC
:1016F000216888612068806920F4806021688861A1
:1017000020688069296940EA0120216888612FE00A
:101710002946206801F05CFB2068C06940F00800A1
:101720002168C8612068C06920F004002168C86190
:101730002068C069296908432168C86118E0294602
:10174000206801F081FB2068C06940F400602168D6
:10175000C8612068C06920F480602168C861206881
:10176000C069296940EA01202168C86100E000BF22
:1017700000BF012084F83D0000BF002084F83C0039
:1017800000BF00BF85E710B50446022084F83D0085
:1017900000BF2068006A41F21111084050B920686A
:1017A000006A8910084028B92068006820F001000C
:1017B0002168086000BF204600F022F8002084F86D
:1017C0003D0000BF84F83C0000BF10BD10B50446CA
:1017D0000CB9012010BD94F83D0028B9002084F810
:1017E0003C00204600F00DF8022084F83D00211D49
:1017F000206801F0F9F9012084F83D000020E9E7B4
:101800007047704770B504460E4601223146206885
:1018100001F056FA0F492068884203D00E4920682B
:10182000884201D1012000E0002028B12068406CEE
:1018300040F40040216848642068806800F0070593
:10184000062D05D02068006840F00100216808607E
:10185000002070BD000001400004014010B50446A6
:101860000CB9012010BDA06900B100E000BF94F8E0
:10187000390028B9002084F83800204600F027F805
:10188000242084F839002068C06820F400502168C2
:10189000C860204601F002FB2068006920F49040F7
:1018A000216808612068406920F02A0021684861A9
:1018B0002068C06840F400502168C8600020E063E0
:1018C000202084F8390084F83A000020CAE77047E5
:1018D00000B59BB0502107A8FEF7CEFC1C2168463E
:1018E000FEF7CAFC4FF020400790174808900320ED
:1018F00000900020019006200290002003900490A8
:10190000059006900220099000210A910B91202158
:101910000C9100210D910E911091C10211910021A5
:101920001291139114911591169117916A46694677
:1019300007A8FFF72DFE20B14FF4907103A0FFF729
:1019400049F81BB000BD0000040100A02E2E5C2E43
:101950002E5C557365725C6273705C7372635C625B
:1019600073705F666D635F696F2E630000B587B04B
:1019700000BF002001904448006840F00800424940
:1019800008600846006800F00800019000BF00BF32
:1019900000BF002001900846006840F01000086079
:1019A0000846006800F01000019000BF00BF00BFB3
:1019B000002001900846006840F04000086008469A
:1019C000006800F04000019000BF00BF00BF002091
:1019D00001900846006840F08000086008460068F2
:1019E00000F08000019000BF00BF00BF0020019008
:1019F0000846006840F4807008600846006800F4FB
:101A00008070019000BF00BF00BF002001901E4801
:101A10000830006840F001001B49083108600846A2
:101A2000006800F00100019000BF00BF0220039099
:101A300001200490032005900C2006904CF2337096
:101A4000029002A91148FFF773F84FF680700290D8
:101A500002A90F48FFF76CF840F20320029002A998
:101A60000C48FFF765F84FF47F40029002A90A483E
:101A7000FFF75EF840F2CF60029002A90748FFF737
:101A800057F807B000BD000030380240000C02409B
:101A90000010024000180240001C024000200240DA
:101AA000014604480068084008B101207047002042
:101AB000FCE700002000002029B9084A1268824390
:101AC000064B1A6004E0054A12680243034B1A6091
:101AD000024A1268024B1A60704700002000002082
:101AE0000010006410B53249096801F0004149B1A5
:101AF0002F49096841F000412D4A11608169891C14
:101B0000816110BD2A49083909682A4A11622849A9
:101B1000091F097882F824102549C91E09789162A5
:101B200023490C310968D1622149891E098811862F
:101B30001F49096851631E49091D096891631C49C1
:101B400010310968D1631CA200210BE0535C254CC5
:101B5000636000BF234B1B6803F04003002BF9D0E8
:101B60004B1CD9B22929F1D300211F4A116000BFB3
:101B70001D4909680029FBD00E4A016811604168BF
:101B8000516081689160C168D160016911614169EA
:101B9000516181699161C169D1610021124A11606D
:101BA00000BF114909680029FBD000BFA9E7000068
:101BB0002CED00E0103200200D0A456E7465722095
:101BC000486172644661756C745F48616E646C65EF
:101BD000722C2053797374656D2048616C742E0DDE
:101BE0000A000000001001403800002000B587B056
:101BF00000BF002001906848006840F0010066497D
:101C000008600846006800F00100019000BF00BFB6
:101C100000BF002001900846006840F00100086005
:101C20000846006800F00100019000BF00BF00BF3F
:101C30000020019058481430006840F010005649C8
:101C4000143108600846006800F01000019000BFE1
:101C500000BF481502900220039001200490032049
:101C600005900720069002A94C48FEF761FF4FF44B
:101C7000806002900720069002A94848FEF758FFAE
:101C8000012200212520FFF7CEF82520FFF7BBF821
:101C90000C2300224FF4E131414802F0BFFC4048E0
:101CA000006820F040003E4908600846006820F0C7
:101CB000200008600846C06840F02000C86000BFEF
:101CC000002001903448006840F00200324908606A
:101CD0000846006800F00200019000BF00BF00BF8E
:101CE000002001900846006840F0020008600846A5
:101CF000006800F00200019000BF00BF00BF00209C
:101D0000019025481030006840F4802022491031AD
:101D100008600846006800F48020019000BF00BF02
:101D200008150290022003900120049003200590E2
:101D30000720069002A91B48FEF7FAFE4FF4006048
:101D400002900720069002A91648FEF7F1FE032232
:101D500000212720FFF767F82720FFF754F80C230E
:101D600000224FF41651104802F058FC0C4800684D
:101D700020F040000A4908600846006820F0200072
:101D8000086009480C30006840F0200006490C311A
:101D9000086007B000BD000030380240000002407B
:101DA0000010014000040240004800402DE9F041CD
:101DB0000446082C17DA0026FF27002508E02846ED
:101DC00000F030F810B1701CC6B22F46681CC5B2C6
:101DD000082DF4DB012E04D1A74202D10120BDE879
:101DE000F0810020FBE7082C0BD1002000F01AF84E
:101DF00028B1012000F016F808B10120EFE700201B
:101E0000EDE7092C0BD1012000F00CF828B10220DD
:101E100000F008F808B10120E1E70020DFE700202A
:101E2000DDE7000001460B4850F831000069094B1E
:101E300003EBC1039B88184008B9002200E001228F
:101E4000044800EBC1008079904201D10120704725
:101E50000020FCE7384A000800BFFEE7FEB500207E
:101E6000574981F821000846807F082807D00320C1
:101E700081F8210091F8210000F078FBFEBD504868
:101E8000C0784F49897840EA01274D4840794C494C
:101E9000097940EA0125E81DC11700EB5171CE1008
:101EA000B7F5807F35DD002D33DD7819B0F5837F00
:101EB0002FDA002404E000200DF80400601C84B236
:101EC000B442F8DB002421E0611C3944491EC8B249
:101ED00002F024F8C0B1E21704EB5272D2101DF8E0
:101EE00002202146E31704EB5373DB10A4EBC30C71
:101EF000012303FA0CF31A43D2B22046E31704EB92
:101F00005373DB100DF80320601C84B2AC42DBDBA2
:101F100008E002202A4981F8210091F8210000F010
:101F200025FBABE7264890F82100002841D1244941
:101F300081F840000846017890F8402090F8400071
:101F4000401C1F4B83F8400003F1220081542238CB
:101F5000417890F8402090F84000401C83F8400001
:101F600003F122008154223890F8402090F840007C
:101F7000401C83F8400003F12200865400240FE047
:101F80001DF804100E4890F8402090F84000401CC6
:101F90000B4B83F8400003F122008154601C84B293
:101FA000B442EDDB064890F84010223000F0F4FA1D
:101FB00004E0034991F8210000F0D8FA00BF5DE782
:101FC000BE310020FEB50020574981F821000846A7
:101FD000807F082807D0032081F8210091F8210094
:101FE00000F0C4FAFEBD5048C0784F49897840EAF5
:101FF00001254D4840794C49097940EA0126F01DF8
:10200000C11700EB5171CF10B5F5007F34DD002E04
:1020100032DDA819B0F5017F2EDC002404E0002099
:102020000DF80400601C84B2BC42F8DB002420E000
:10203000691E2144C8B201F0B1FDC0B1E21704EB42
:102040005272D2101DF802202146E31704EB53739D
:10205000DB10A4EBC30C012303FA0CF31A43D2B236
:102060002046E31704EB5373DB100DF80320601CCC
:1020700084B2B442DCDB08E002202B4981F8210065
:1020800091F8210000F072FAACE7274890F821009F
:10209000002841D1244981F840000846017890F891
:1020A000402090F84000401C1F4B83F8400003F193
:1020B000220081542238417890F8402090F8400066
:1020C000401C83F8400003F122008154223890F82C
:1020D000402090F84000401C83F8400003F12200AB
:1020E000875400240FE01DF804100F4890F840209A
:1020F00090F84000401C0C4B83F8400003F1220094
:102100008154601C84B2BC42EDDB074890F840105B
:10211000223000F041FA04E0034991F8210000F078
:1021200025FA00BF5EE70000BE31002070B590B018
:1021300000204F4981F821000846807F082808D0F8
:10214000032081F8210091F8210000F00FFA10B06F
:1021500070BD4748C0784649897840EA012644481E
:1021600040794349097940EA0125202D08D9032007
:102170003F4981F8210091F8210000F0F7F9E6E7E6
:10218000002414E06846022202FB0401304600F0FD
:10219000AFF940B90220364981F8210091F82100B9
:1021A00000F0E4F9D3E7701C86B2601C84B2AC4244
:1021B000E8DB2F4890F82100002852D12C4981F803
:1021C00040000846017890F8402090F84000401CFC
:1021D000274B83F8400003F12200815422384178D4
:1021E00090F8402090F84000401C83F8400003F134
:1021F000220081546806010E184690F8402090F89D
:102200004000401C83F8400003F122008154002468
:102210001EE01DF81410164890F8402090F8400079
:10222000401C134B83F8400003F1220081546000EE
:10223000401C1DF80010184690F8402090F840000F
:10224000401C83F8400003F122008154601C84B2DA
:10225000AC42DEDB064890F84010223000F09CF9DA
:1022600004E0034991F8210000F080F900BF6EE717
:10227000BE31002070B586B00A2101A8FDF7FCFF31
:102280000020534981F821000846807F082808D0A3
:10229000032081F8210091F8210000F067F906B0D1
:1022A00070BD4B48C0784A49897840EA01264848C1
:1022B00040794749097940EA0125B6F5806F1EDD6E
:1022C000002D1CDD701940F26541884217DC0024A6
:1022D00012E0A6F2014028B93E48808801A921F801
:1022E000140004E0002001A921F8140000BF00BF81
:1022F000701C86B2601C84B2AC42EADB08E00220AB
:10230000334981F8210091F8210000F02FF9C6E748
:102310002F4890F82100002853D12D4981F8400022
:102320000846017890F8402090F84000401C284B67
:1023300083F8400003F1220081542238417890F85C
:10234000402090F84000401C83F8400003F1220038
:1023500081546806010E184690F8402090F840001D
:10236000401C83F8400003F12200815400241FE048
:1023700001A830F814000112154890F8402090F898
:102380004000401C124B83F8400003F122008154AE
:1023900001A810F81410184690F8402090F840005A
:1023A000401C83F8400003F122008154601C84B279
:1023B000AC42DDDB064890F84010223000F0ECF82B
:1023C00004E0034991F8210000F0D0F800BF66E76F
:1023D000BE3100200032002010B51148407801289D
:1023E00006D0022807D0032808D004280CD108E022
:1023F000FFF734FD11E0FFF7E5FD0EE0FFF796FE75
:102400000BE0FFF737FF08E00120054981F82100C4
:1024100091F8210000F0AAF800BF00BF10BD000035
:10242000BE31002010B5002400BF07E00548025D62
:10243000214605A001F006F8601CC4B2082CF5DBAB
:1024400010BD0000BE310020675F4D6F64532E52F7
:10245000786275665B25645D203D2025780D0A0055
:1024600070B51948007800B970BDFFF7DBFF17A001
:1024700000F0E8FF0020144908701848807F042805
:1024800003DA002015498877EEE715A000F0DAFF9F
:102490001248817FFEF73EFA04461CB100200F4926
:1024A0008877E1E710A000F0CDFF0C480578012DFA
:1024B00003D0002009498877D6E7FFF78DFF002079
:1024C0000649887700BFCFE724000020737461724B
:1024D0007420706F6C6C0D0A00000000BE3100208B
:1024E00074657374310D0A0074657374320D0A00DB
:1024F00003460A46A3F2013010B1012806D102E0DA
:102500000648018804E00548418801E00020704742
:1025100000BF0812107051700120F8E7003200204F
:1025200070B5044600200B49087040F63D650A4A24
:102530002946012002F0FAF80848807F1E2807DAB1
:102540000648817F807F401C044A9077104644549F
:1025500070BD00002400002061250008BE3100206D
:1025600001200149087070472400002038B5044656
:10257000084800788DF800000648407840F0800058
:102580008DF801008DF800400321684600F004F842
:1025900038BD0000BE31002070B588B005460C463D
:1025A000224629466846FDF74EFE21462846FEF79C
:1025B000B1F9064632122046611CCCB20DF800205B
:1025C000F2B22046611CCCB20DF8002021466846CC
:1025D00000F0A4F908B070BD7047704710B50EA0A8
:1025E00000F030FF0FA000F02DFF1CA000F02AFF2C
:1025F00028A000F027FF35A000F024FF41A000F044
:1026000021FF4EA000F01EFF55A000F01BFF5DA0B3
:1026100000F018FF10BD0000B2D9D7F7CCE1CABE58
:102620003A0D0A00312E20C6F4B6AFD2BBB8F6D7A9
:10263000D4B6AFD6D8D7B0C8EDBCFEB6A8CAB1C61E
:10264000F7A3ACC3BF3130306D73B7ADD7AAD2BBDF
:10265000B4CE4C4544320D0A00000000322E20B4A6
:10266000AEBFDABDD3CAD5B5BDD7D6B7FBC3FCC1A3
:10267000EE273127A3ACB7B5BBD8B4AEBFDACFFBDA
:10268000CFA2BDD3CAD5B5BDB4AEBFDAC3FCC1EECF
:10269000310D0A00332E20B4AEBFDABDD3CAD5B592
:1026A000BDD7D6B7FBC3FCC1EE273227A3ACB7B565
:1026B000BBD8B4AEBFDACFFBCFA2BDD3CAD5B5BDB0
:1026C000B4AEBFDAC3FCC1EE320D0A00342E20B422
:1026D000AEBFDABDD3CAD5B5BDD7D6B7FBC3FCC133
:1026E000EE273327A3ACB7B5BBD8B4AEBFDACFFB68
:1026F000CFA2BDD3CAD5B5BDB4AEBFDAC3FCC1EE5F
:10270000330D0A00352E20B4AEBFDABDD3CAD5B51D
:10271000BDD7D6B7FBC3FCC1EE273427A3ACB7B5F2
:10272000BBD8B4AEBFDACFFBCFA2BDD3CAD5B5BD3F
:10273000B4AEBFDAC3FCC1EE340D0A00362E204B16
:1027400031B0B4BCFCB0B4CFC2A3ACB4AEBFDAB449
:10275000F2D3A1B0B4BCFC4B31B0B4CFC20D0A006F
:10276000372E204B32B0B4BCFCB0B4CFC2A3ACB453
:10277000AEBFDAB4F2D3A1B0B4BCFC4B32B0B4CF2C
:10278000C20D0A00382E204B33B0B4BCFCB0B4CF1D
:10279000C2A3ACB4AEBFDAB4F2D3A1B0B4BCFC4BAC
:1027A00033B0B4CFC20D0A002DE9F04112A000F001
:1027B00049FE21480468001D0568001D06681F4881
:1027C00000681F49B0FBF1F739461EA000F03AFE41
:1027D00023462A46314627A000F034FE2AA000F006
:1027E00031FE05A000F02EFE28A000F02BFE02A076
:1027F00000F028FEBDE8F0812A2A2A2A2A2A2A2A5D
:102800002A2A2A2A2A2A2A2A2A2A2A2A2A2A2A2A28
:102810002A2A2A2A2A2A2A2A2A2A2A2A2A2A2A2A18
:102820002A2A2A2A2A2A2A2A2A2A2A2A2A2A2A2A08
:102830002A2A2A2A2A0A0D00107AFF1F34000020B3
:1028400040420F000D0A435055203A2053544D3357
:102850003246343239424954362C204C514650329B
:1028600030382C20D6F7C6B53A2025644D487A0D6D
:102870000A000000554944203D20253038582025C5
:1028800030385820253038580A0D00002A20484199
:102890004CBFE2B0E6B1BE20203A2056322E342E94
:1028A00030202853544D3332463432392048414C7D
:1028B00020447269766572290D0A000000B587B060
:1028C00000BF002001900D48006840F002000B4955
:1028D00008600846006800F00200019000BF00BFD9
:1028E0000120039000200490032005900420029012
:1028F00002A90348FEF71CF907B000BD30380240BA
:102900000004024010B504462046FFF709FE10BD42
:1029100004200149086070471804024070B504465D
:102920000D462A462146022001F046FF70BD0000F8
:102930004FF48020014908607047000018040240ED
:102940007047000010B5FEF70DFA0448007800B992
:1029500010BD00F005F800BFFAE700001C000020E1
:1029600010B51B48006840B119480068401E18495E
:10297000086010B9012017490870002408E004EB32
:102980004401154A02EB810001F074FE601CC4B2E0
:10299000042CF4DB11480068401C1049086008460C
:1029A00000686FF00041884202D100200B490860A6
:1029B00001F04EFD0A480078401CC0B2084908707A
:1029C0000A2803DB0020087001F03CFD10BD000068
:1029D00010000020140000201C110020180000200E
:1029E0001D00002000B593B000BF002001903048CA
:1029F000006840F080502E4908600846006800F0EA
:102A00008050019000BF00BF00BF00200190294806
:102A1000006840F44040274908600846006800F418
:102A20004040019000BF00BF0120029000040390CD
:102A3000022008904105099108210A914FF4A871DC
:102A40000B9102210C9104210D9102A8FEF77CFB51
:102A500018B1722118A0FDF7BDFF0F200E900220C3
:102A60000F90002010904FF4A05011904FF4805020
:102A7000129005210EA8FEF729FA18B185210EA0A3
:102A8000FDF7A8FF00BF002001900948001D006865
:102A900040F480400649091D08600846006800F4BB
:102AA0008040019000BF00BFFEF728F813B000BDC2
:102AB00040380240007000402E2E5C2E2E5C557374
:102AC00065725C6273705C6273702E63000000005C
:102AD0001448006840F47000124908601248006809
:102AE00040F001001049086000200F4908310860DB
:102AF0000D4800680D4908400B4908600C48091D45
:102B00000860081F006820F48020091F086000206A
:102B100005490C3108604FF00060024980390860B7
:102B20007047000088ED00E000380240FFFFF6FE2D
:102B30001030002470B5002500264FF08044206935
:102B400000F00205E06800F002065DB156B14FF6F4
:102B5000FD702061E0684FF6FD710840E0601E489E
:102B600000688047206900F00405E06800F0040672
:102B70005DB156B14FF6FB702061E0684FF6FB7116
:102B80000840E060154800688047206900F00805AB
:102B9000E06800F008065DB156B14FF6F7702061AD
:102BA000E0684FF6F7710840E0600D480068804724
:102BB000206900F01005E06800F010065DB156B124
:102BC0004FF6EF702061E0684FF6EF710840E0606B
:102BD00004480068804770BD000000200400002009
:102BE000080000200C00002010B50268294B984214
:102BF0000ED0B0F1804F0BD0274B984208D0274B16
:102C0000984205D0264B984202D0264B984203D1D9
:102C100022F070024B681A431E4B984220D0B0F14C
:102C2000804F1DD01C4B98421AD01C4B984217D095
:102C30001B4B984214D01B4B984211D01A4B984210
:102C40000ED01A4B98420BD0194B984208D0194B12
:102C5000984205D0184B984202D0184B984203D1A5
:102C600022F44072CB681A4322F080034C6943EA95
:102C7000040202608B68C3620B688362054B984252
:102C800002D0084B984201D10B69036301234361D1
:102C900010BD00000000014000040040000800409A
:102CA000000C00400004014000400140004401408D
:102CB0000048014000180040001C00400020004077
:102CC00030B501F01F05012404FA05F3046A9C43A2
:102CD0000462046A01F01F0502FA05F52C43046240
:102CE00030BD000030B5056A25F001050562026AB5
:102CF0004368846924F0700424F003040D682C43B5
:102D000022F002028D682A43104DA84200D103E050
:102D10000F4DA84206D100BF22F00802CD682A4319
:102D200022F00402094DA84202D0094DA84207D161
:102D300023F4807323F400734D692B438D692B4377
:102D4000436084614D684563026230BD000001400C
:102D50000004014030B5056A25F010050562026ADD
:102D60004368846924F4E04424F440740D6844EA20
:102D7000052422F020028D6842EA0512124DA84275
:102D800000D103E0114DA84207D100BF22F080021C
:102D9000CD6842EA051222F040020B4DA84202D053
:102DA0000A4DA84209D123F4806323F400634D69DE
:102DB00043EA85038D6943EA8503436084614D6876
:102DC0008563026230BD0000000001400004014044
:102DD00030B5056A25F480750562026A4368C469E6
:102DE00024F0700424F003040D682C4322F40072D4
:102DF0008D6842EA0522124DA84200D103E0114D30
:102E0000A84207D100BF22F40062CD6842EA052241
:102E100022F480620A4DA84202D00A4DA84209D18C
:102E200023F4805323F400534D6943EA05138D695D
:102E300043EA05134360C4614D68C563026230BD57
:102E4000000001400004014030B5056A25F48055BA
:102E50000562036A4468C26922F4E04222F44072C7
:102E60000D6842EA052223F400538D6843EA0533D6
:102E7000084DA84202D0084DA84204D124F4804451
:102E80004D6944EA85144460C2614D68056403627B
:102E900030BD000000000140000401402DE9F04178
:102EA00004462068006920F44050E1680843216826
:102EB00008612169A068084361690843E16940EA43
:102EC00001052068C06849F20C61884328432168E5
:102ED000C8602068406920F44070A16908432168F7
:102EE0004861E069B0F5004F7ED1C449206888424E
:102EF00003D0C349206888425DD1FEF7BDF800EBDE
:102F0000C00101EB001061684900B0FBF1F06421E1
:102F1000B0FBF1F00601FEF7AFF800EBC00101EBEA
:102F2000001061684900B0FBF1F7FEF7A5F800EB6F
:102F3000C00101EB001061684900B0FBF1F06421B1
:102F4000B0FBF1F000EBC00101EB0010A7EB80003B
:102F5000322101EBC0006421B0FBF1F000F0F80079
:102F600006EB4006FEF788F800EBC00101EB00100D
:102F700061684900B0FBF1F7FEF77EF800EBC00195
:102F800001EB001061684900B0FBF1F06421B0FB77
:102F9000F1F000EBC00101EB0010A7EB8000322143
:102FA00001EBC0006421B0FBF1F000F007003044F9
:102FB0002168886020E1FEF74FF800EBC00101EBCB
:102FC000001061684900B0FBF1F06421B0FBF1F042
:102FD0000601FEF741F800EBC00101EB001061684B
:102FE0004900B0FBF1F700E045E0FEF735F800EBF3
:102FF000C00101EB001061684900B0FBF1F06421F1
:10300000B0FBF1F000EBC00101EB0010A7EB80007A
:10301000322101EBC0006421B0FBF1F000F0F800B8
:1030200006EB4006FEF718F800EBC00101EB0010BC
:1030300061684900B0FBF1F7FEF70EF800EBC00144
:1030400001EB001061684900B0FBF1F06421B0FBB6
:10305000F1F000EBC00101EB0010A7EB8000322182
:1030600001EBC0006421B0FBF1F000F00700304438
:1030700021688860C0E061492068884203D06049C7
:10308000206888425CD1FDF7F7FF00EBC00101EB3F
:10309000001061688900B0FBF1F6FDF7EDFF00EB71
:1030A000C00101EB001061688900B0FBF1F0642100
:1030B000B0FBF1F000EBC00101EB0010A6EB8000CB
:1030C000322101EB00106421B0FBF1F000F0F006BA
:1030D000FDF7D2FF00EBC00101EB00106168890031
:1030E000B0FBF1F06421B0FBF1F006EB0016FDF748
:1030F000C3FF00EBC00101EB001061688900B0FB69
:10310000F1F7FDF7B9FF00EBC00101EB00106168BA
:103110008900B0FBF1F06421B0FBF1F000EBC001DD
:1031200001EB0010A7EB8000322101EB00106421BD
:10313000B0FBF1F000F00F003044216888605BE0E4
:10314000FDF78AFF00EBC00101EB00106168890008
:10315000B0FBF1F6FDF780FF00EBC00101EB0010C2
:1031600061688900B0FBF1F06421B0FBF1F000EB85
:10317000C00101EB0010A6EB8000322101EB001032
:103180006421B0FBF1F000F0F006FDF765FF00EB05
:10319000C00101EB001061688900B0FBF1F064210F
:1031A000B0FBF1F006EB0016FDF756FF00EBC00197
:1031B00001EB001061688900B0FBF1F7FDF74CFFEF
:1031C00000EBC00101EB001061688900B0FBF1F079
:1031D0006421B0FBF1F000EBC00101EB0010A7EBA4
:1031E0008000322101EB00106421B0FBF1F000F00F
:1031F0000F00304421688860BDE8F0810010014074
:103200000014014010B5024800F00CF810BD000099
:103210004C11002010B5024800F004F810BD000069
:10322000781900202DE9F0410446206805682068DF
:10323000C6682068D0F8148005F02000D8B1206856
:103240004068C7B2E18AA0684754E08A401C80B257
:10325000E082E189884201DB0020E082608BE18925
:10326000884202DA608B401C6083606A10B1384685
:10327000616A884700BF05F0800028B306F080002F
:1032800010B3A08A60B92068C06820F0800021686F
:10329000C8602068C06840F040002168C86013E042
:1032A000012084F82800618A6068405C21684860D9
:1032B000608A401C80B26082A189884201DB0020C4
:1032C0006082A08A401EA08205F0400018B306F07C
:1032D000400000B3A08A68B92068C06820F04000B0
:1032E0002168C860206A08B1206A8047002084F8FD
:1032F000280010E0618A6068405C21684860608A4C
:10330000401C80B26082A189884201DB002060827B
:10331000A08A401EA082BDE8F081F8B504460F46A1
:103320001646002539E01EE0012000F0C9F8A08A09
:103330000090002000F0C4F8A089BDF80010884279
:1033400000DD11E0A089BDF8001088420AD1206894
:10335000C06800F0800028B92068C06840F0800094
:103360002168C86000BFDFE700BF785D228A61681E
:103370008854012000F0A4F8208A401C80B22082EA
:10338000A189884201DB00202082A08A401CA08203
:10339000002000F095F8681C85B2B542C3DB2068B8
:1033A000C06840F080002168C860F8BD19481A491B
:1033B00008601A4848601A4888604FF48060888125
:1033C000C881002008824882C88208834883888296
:1033D000C8610862486281F82800124812490860F2
:1033E00012484860124888604FF480608881C88124
:1033F000002008824882C8820883488388820D485A
:10340000C8610D4808620D484862002081F8280014
:1034100070470000001001404C110020781100207E
:10342000781500200048004078190020A4190020D9
:10343000A41D0020112900083129000805290008D1
:1034400000BFFEE70FB4054B10B503A9044A02986C
:1034500000F03AF810BC5DF814FB0000F7470008D4
:103460003C00002002480068C0F3022070470000C2
:103470000CED00E010B5002804DB0A07130E054A26
:10348000135406E00A07140E034A00F00F031B1F33
:10349000D45410BD00E400E018ED00E002E008C8DC
:1034A000121F08C1002AFAD170477047002001E0BE
:1034B00001C1121F002AFBD1704780F310887047AA
:1034C00080F31088704700002DE9FF4F8DB00F4644
:1034D0000546002606E025280BD0DDE90F129047AF
:1034E0006D1C761C28780028F5D111B03046BDE857
:1034F000F08F0024A246A1460122EC4900E00443DB
:1035000015F8013F203B02FA03F00842F7D1287872
:103510002A2810D06FF02F022878A0F13001092955
:1035200014D80AEB8A0102EB410144F0020400EBDB
:10353000010A6D1CF0E701CF5FEA000A03D544F4ED
:103540000054CAF1000A44F002046D1C28782E28A9
:1035500017D115F8010F44F004042A280ED06FF09B
:103560002F022878A0F1300109290AD809EB890136
:1035700002EB410100EB01096D1CF2E757F8049BD7
:103580006D1C28786C280FD006DC4C2817D06828D2
:103590000DD06A2814D104E0742810D07A280FD1F5
:1035A0000DE044F400140AE044F4801401E044F413
:1035B00040146978814202D104F580146D1C6D1CA1
:1035C0002A786E2A1FD00CDC632A31D004DC002A52
:1035D0008BD0582A11D1A3E0642A68D0692A0CD173
:1035E00065E0732A2ED004DC6F2A73D0702A04D1D0
:1035F0009BE0752A6FD0782A6ED01046DDE90F1255
:103600009047761C50E1C4F30250022806D00328EC
:1036100009D0042801CF09D0066045E101CFF11798
:10362000C0E9006140E101CF06803DE106703BE169
:1036300017F8040B8DF8000000208DF80100EB4610
:10364000012003E057F804BB4FF0FF3061074FF053
:10365000000102D40DE008F10101884649450FDA66
:103660008045F8DB1BF808100029F4D108E008F1C8
:10367000010188468142FADB1BF808100029F6D1C7
:10368000DDE90F23AAEB08008146214600F036F958
:10369000304400EB080604E0DDE90F121BF8010BD3
:1036A0009047B8F10108F7D221464846F7E00A21D1
:1036B000C4F302534FF0000B0891022B04D001CF4A
:1036C000C117032B09D00AE0FF1D27F00707F7E811
:1036D000020108E032E01FE020E000B2C117042B35
:1036E00001D140B2C117031E71F1000307DA4FF098
:1036F000000CD0EB0C006CEB01012D2302E0230544
:1037000004D52B238DF82430012303E0E30701D0F7
:103710002023F7E7984658E00A2110E010210EE038
:1037200010204FF0000B08900CE010214FF0000B20
:1037300044F004044FF00809089103E008214FF019
:10374000000B0891C4F30253022B04D001CF0021D7
:10375000032B06D006E0FF1D27F00707F7E802015C
:1037600003E080B2042B00D1C0B24FF00008230761
:103770002BD5702A07D0DDF820C08CF0100C5CEA45
:103780000B0C05D00EE040238DF82430012308E017
:1037900050EA010306D030238DF824308DF825201F
:1037A00002239846DDF820C08CF0080C5CEA0B0C74
:1037B0000BD150EA010301D1630706D530238DF800
:1037C00024304FF00108A9F10109582A04D038A289
:1037D0000B9208AA0A920BE03AA2F9E75B46089A14
:1037E000FCF700FD0B9B9B5C0A9A521E0A92137019
:1037F00050EA0102F2D10A98ADEB000000F1200B73
:10380000600702D524F4803401E04FF00109D94566
:1038100002DDA9EB0B0000E0002000EB0B014144AE
:103820000890AAEB010AE00306D4DDE90F23214644
:10383000504600F063F806444FF0000908E009A97B
:1038400011F80900DDE90F12904709F10109761C12
:10385000C145F4DBE0030CD5DDE90F2321465046DA
:1038600000F04CF8064404E0DDE90F1230209047E8
:10387000761C0899481E08900029F5DC08E00A9893
:103880000A990078491C0A91DDE90F129047761CCD
:10389000BBF10001ABF1010BF1DC21465046DDE943
:1038A0000F2300F019F806446D1C1BE609280100DF
:1038B00030313233343536373839616263646566A6
:1038C0000000000030313233343536373839414268
:1038D00043444546000000002DE9F0410446002520
:1038E0001E461746880404D405E039462020B04718
:1038F0006D1C641EF9D52846BDE8F0812DE9F04124
:10390000044600251E469046C80301D5302700E036
:103910002027880404D505E041463846B0476D1C91
:10392000641EF9D52846BDE8F0810000014604294F
:1039300001DB0020704701EB4100084A02EB8000E8
:103940004078012808D1002001EB4102034B03EB32
:10395000820250700120EDE70020EBE71C110020EF
:1039600030B585B005460C46284600F02DFB0120F9
:10397000019000200290032003900094694628469D
:10398000FDF7D6F805B030BD70B586B006460C46DA
:103990001546304600F018FB284600F001FC0220D6
:1039A00002900120039003200490284600F06EF856
:1039B0000590019401A93046FDF7BAF806B070BD34
:1039C00070B50546304800EB05142846FEF7EEF9C1
:1039D00000283ED02079052802DA0520207152E027
:1039E00020790A2803DA2079401C20714BE0A07A64
:1039F00038B90120A07205EB4501491CC8B200F09E
:103A0000D3FA208900283EDDE088218988420DDA3A
:103A1000E088401C80B2E0802189884233D105EBE8
:103A20004501C91CC8B200F0BFFA2CE0E07A0028BA
:103A300029DD207B401CC0B22073E17A884222DB62
:103A40000020207305EB4501491CC8B200F0ACFA18
:103A500019E02079052802DD0520207110E0207989
:103A600018B12079401E20710AE0A07A012807D100
:103A70000020A07205EB4501891CC8B200F094FA41
:103A80000020E080207370BD6010002070B50446F7
:103A900000252148844201D101253AE0B4F1804F4C
:103AA00001D1012535E01D48844201D1022530E0D5
:103AB0001B48844201D102252BE01A48844201D1DF
:103AC000022526E01848844201D1032521E0174849
:103AD000844201D103251CE01548844201D103250D
:103AE00017E01448844201D1032512E012488442B1
:103AF00001D109250DE01148844201D1092508E0D2
:103B00000F48844201D1092503E0BE210DA0FCF736
:103B100061FF284670BD0000000001400004004025
:103B200000080040000C004000040140004001403B
:103B3000004401400048014000180040001C0040C3
:103B4000002000402E2E5C2E2E5C557365725C6248
:103B500073705C7372635C6273705F74696D5F70C5
:103B6000776D2E63000000000B48807A0A4AD27AF3
:103B7000904201D1002070470748807A064A115CC4
:103B80001046807A401CC0B290720A2801DB0020E7
:103B900090720846EFE7000000110020014602483D
:103BA00000EB0110807A70476010002010B5FEF71E
:103BB00057FC10BD10B5FDF7E1F8FEF713FF00F05C
:103BC00097F800F04FF900F0A1F900F01DF800F0AF
:103BD0003BF9FCF72DFE00F001F810BD10B5FCF725
:103BE00091FBFCF733FC0020FCF746FD0020FCF7BE
:103BF0002DFDFCF70FFD012240210248FDF7A6F83C
:103C000010BD00000008024010B5FDF7AFFEFDF743
:103C10005FFE40F6147003490860084600680249D8
:103C2000086010BD2000002000100064F0B591B0C5
:103C3000402101A8FCF720FB4FF0804500BF002089
:103C400000901F48006840F001001D4908600846C8
:103C5000006800F00100009000BF00BF1948006834
:103C600047081948B7FBF0F0401E86B2B5F1804F07
:103C700002D01648854202D14FF0FF3401E04FF6E2
:103C8000FF74019502960494002105910391069119
:103C90008021079101A8FDF7C2FC20B14FF4067105
:103CA0000BA0FCF797FE022200211C20FDF7BBF8B9
:103CB0001C20FDF7A8F801A8FDF7CCFC11B0F0BD61
:103CC000403802403400002040420F00000C004009
:103CD0002E2E5C2E2E5C557365725C6273705C7365
:103CE00072635C6273705F74696D65722E6300004D
:103CF00010B500F06DF800F001F810BD10B586B0F9
:103D000000BF002000903048006840F004002E49B9
:103D100008600846006800F00400009000BF00BF83
:103D200000BF002000900846006840F020000860B6
:103D30000846006800F02000009000BF00BF00BFF0
:103D4000002000900846006840F0400008600846E7
:103D5000006800F04000009000BF00BF00BF0020DE
:103D600000900846006840F080000860084600683F
:103D700000F08000009000BF00BF00BF0020009056
:103D80000846006840F4807008600846006800F447
:103D90008070009000BF00BF0020029003900320BD
:103DA000049000240CE0094800EBC40080880190D6
:103DB000064951F8340001A9FCF7BAFE601CC4B2F0
:103DC000082CF0DB06B010BD30380240384A00083D
:103DD00010B500201A498872C8720873002418E0D0
:103DE0006420184901EB041108810220154901EBF8
:103DF000041108710020134901EB04118872114964
:103E000001EB0411C8720F4901EB04110873601C27
:103E1000C4B20A2CE4DB06226421032000F01AFB62
:103E200006226421042000F015FB062264210520EF
:103E300000F010FB06226421104600F00BFB10BDC1
:103E4000001100206010002010B5012000F08EF855
:103E5000022000F08BF8032000F088F8042000F026
:103E600085F810BD70B5002416E0002004EB440175
:103E7000214A02EB8101486004EB440102EB81011D
:103E8000886004EB440102EB8101487004EB4401BB
:103E900002F82100601CC4B2042CE6DB174800685D
:103EA0004FF47A72B0FBF2F1481EB0F1807F00D37C
:103EB0001BE0481E4FF0E022506150170F220028EF
:103EC00004DB13071D0E0E4B1D5406E013071E0ED8
:103ED0000C4B00F00F052D1F5E5500BF00204FF06A
:103EE000E02290610720106100BF012006490870A0
:103EF000FFF79CFE70BD00001C1100203400002064
:103F000000E400E018ED00E01C00002010B5FFF711
:103F10004DFAFDF76BFEFEF7D1FC10BD70B50446FF
:103F2000012C01D105020EE0022C01D125020AE08C
:103F3000032C02D14FF4806505E0042C01D1650209
:103F400001E0002070BD2846FDF7AAFD08B1002061
:103F5000F8E70120F6E710B5002404E02046FFF75B
:103F60002FFD601CC4B20A2CF8DB10BD10B504464E
:103F7000012C04D101210002FDF79EFD13E0022C6B
:103F800004D101214802FDF797FD0CE0032C04D178
:103F900001218802FDF790FD05E0042C03D10121E9
:103FA000C802FDF789FD10BD0649C97A054A50547B
:103FB0001146C97A491CC9B2D1720A2901DB002114
:103FC000D17270470011002008B5694988420FD1AD
:103FD00000BF002100916749096841F00101654A6D
:103FE00011601146096801F00101009100BFBDE0B8
:103FF000614988420FD100BF002100915D490968E5
:1040000041F002015B4A11601146096801F00201AA
:10401000009100BFAAE0594988420FD100BF00219A
:1040200000915449096841F00401524A1160114657
:10403000096801F00401009100BF97E050498842EF
:104040000FD100BF002100914A49096841F00801E1
:10405000484A11601146096801F00801009100BF4B
:1040600084E0484988420FD100BF002100914149B6
:10407000096841F010013F4A11601146096801F0DA
:104080001001009100BF71E03F4988420FD100BF8D
:10409000002100913749096841F02001354A11603B
:1040A0001146096801F02001009100BF5EE0374928
:1040B00088420FD100BF002100912E49096841F0CC
:1040C00040012C4A11601146096801F0400100913D
:1040D00000BF4BE02E4988420FD100BF0021009164
:1040E0002449096841F08001224A1160114609689B
:1040F00001F08001009100BF38E0264988420FD1CD
:1041000000BF002100911B49096841F48071194AE0
:1041100011601146096801F48071009100BF25E02B
:104120001D4988420FD100BF002100911149096843
:1041300041F400710F4A11601146096801F40071E1
:10414000009100BF12E0154988420FD100BF002145
:1041500000910849096841F48061064A11601146DE
:10416000096801F48061009100BF00BF08BD000034
:1041700000000240303802400004024000080240C3
:10418000000C0240001002400014024000180240DF
:10419000001C02400020024000240240002802408F
:1041A00038B50446904884420FD100BF00200090EB
:1041B0008E48006840F001008C490860084600689D
:1041C00000F00100009000BF0CE1B4F1804F11D16C
:1041D00000BF002000908548001F006840F00100EB
:1041E0008249091F08600846006800F0010000903D
:1041F00000BFF7E07E48844211D100BF002000904C
:104200007A48001F006840F002007849091F0860E2
:104210000846006800F00200009000BFE2E0754828
:10422000844211D100BF002000907048001F006838
:1042300040F004006D49091F08600846006800F05E
:104240000400009000BFCDE06B48844211D100BF54
:10425000002000906548001F006840F00800634996
:10426000091F08600846006800F00800009000BFC1
:10427000B8E06248844211D100BF002000905B4842
:10428000001F006840F010005849091F08600846E8
:10429000006800F01000009000BFA3E0584884427E
:1042A00011D100BF002000905048001F006840F06E
:1042B00020004E49091F08600846006800F02000F1
:1042C000009000BF8EE04F4884420FD100BF002015
:1042D00000904648006840F00200444908600846E3
:1042E000006800F00200009000BF7BE04648844276
:1042F0000FD100BF002000903C48006840F480309F
:104300003A4908600846006800F48030009000BF19
:1043100068E03E4884420FD100BF0020009033483F
:10432000006840F40030314908600846006800F435
:104330000030009000BF55E0354884420FD100BFE7
:10434000002000902948006840F480202749086038
:104350000846006800F48020009000BF42E02D482D
:10436000844211D100BF002000902048001F006847
:1043700040F040001D49091F08600846006800F031
:104380004000009000BF2DE02348844211D100BFBF
:10439000002000901548001F006840F0800013497D
:1043A000091F08600846006800F08000009000BF08
:1043B00018E01A48844211D100BF002000900B4839
:1043C000001F006840F480700849091F0860084613
:1043D000006800F48070009000BF03E07B2110A013
:1043E000FCF7F8FA38BD00000000014044380240F4
:1043F0000004004000080040000C00400010004095
:10440000001400400004014000400140004401400D
:104410000048014000180040001C004000200040FF
:104420002E2E5C2E2E5C557365725C6273705C730D
:1044300072635C6273705F74696D5F70776D2E6319
:104440000000000010B5FFF786FDFCF7F7F910BD7E
:104450007047000010B5074B03EB00131981054BA3
:1044600003EB0013DA720023024C04EB00142373F5
:1044700010BD0000601000202DE9FF4F9BB01446D6
:104480009846DDE9285A40210BA8FBF7F5FE1C21D0
:1044900004A8FBF7F1FE514B0FCB8DE80F00B8F1EC
:1044A000060F04DD40F211114DA0FCF793FABAF1AA
:1044B000000F0BD1DDE91B01FFF752FA0022DDE905
:1044C0001B01FCF743FC1FB0BDE8F08F42F21070F7
:1044D000824509D1DDE91B01FFF742FA0122DDE93E
:1044E0001B01FCF733FCEEE72246DDE91B01FFF779
:1044F0004BFA444884420BD04348844208D0434896
:10450000844205D04248844202D04248844202D1CB
:104510004148076802E0404800684708642D0AD215
:1045200042F20F7942F21070B7FBF0F0B0FBF5F0F9
:10453000401E86B213E040F6B830854209D24FF0F3
:1045400063096420B7FBF0F0B0FBF5F0401E86B2C3
:1045500005E04FF00009B7FBF5F0401E86B20AFBFC
:1045600006F042F21071B0FBF1FB0BA8FDF70BF95E
:104570000B94CDF830900E9600210F910D91109173
:1045800011910BA8FDF722F920B14FF4AF7114A0DF
:10459000FCF720FA60200490002006900890079015
:1045A0000A900990CDF814B03DF8182004A90BA882
:1045B000FDF765F820B140F26D1109A0FCF70AFA89
:1045C0003DF818100BA8FDF71DF920B140F273114A
:1045D00003A0FCF7FFF900BF75E70000A84A000838
:1045E0002E2E5C2E2E5C557365725C6273705C734C
:1045F00072635C6273705F74696D5F70776D2E6358
:1046000000000000000001400004014000400140A3
:10461000004401400048014034000020F0B591B052
:1046200004460D4617461E4601940295002103914B
:104630000491059707910696089101A8FDF70EF9D8
:1046400020B140F22F3102A0FCF7C4F911B0F0BD47
:104650002E2E5C2E2E5C557365725C6273705C73DB
:1046600072635C6273705F756172745F6669666FB6
:104670002E630000416851B14168491E416031B963
:10468000012141700178012901D1816841607047A1
:1046900070B504460D46042C06DB124A12A11AA07E
:1046A000FEF7D0FE00BFFEE70120FEF706FF04EB99
:1046B00044001D4901EB8000456004EB440001EB20
:1046C00080008560002004EB4401174A02EB810161
:1046D0004870012004EB440102F821000020FEF79D
:1046E000ECFE70BD874A00082E2E5C2E2E5C5573A2
:1046F00065725C6273705C7372635C6273705F742A
:10470000696D65722E6300004572726F723A2066A1
:10471000696C652025732C2066756E6374696F6EF5
:1047200020257328290D0A001C11002070B50346AE
:104730000C464FF08040456A2919012B0AD11A4EC8
:10474000326041634FF6FD760661C66846F00206A8
:10475000C66027E0022B0AD1144E326081634FF607
:10476000FB760661C66846F00406C6601AE0032BB5
:104770000AD10F4E3260C1634FF6F7760661C66804
:1047800046F00806C6600DE0042B0AD1094E3260DF
:1047900001644FF6EF760661C66846F01006C66003
:1047A00000E070BD00BFFCE7000000200400002016
:1047B000080000200C0000202DE9F04105460E46BF
:1047C00017462846FCF7C2F804460CB9BDE8F0814C
:1047D000E06908B1E06980473A4631462046FEF775
:1047E0009CFD00BFF2E713B50446012201A9204653
:1047F000FFF7E2FF1CBD70B504460D46E1B2002094
:10480000FFF7F1FF204670BD9AB00025142253A196
:1048100015A8FBF718FD142255A110A8FBF713FDEE
:10482000142258A10BA8FBF70EFD14225AA106A8CA
:10483000FBF709FD14225DA101A8FBF704FDFFF7BA
:10484000B9F9FDF7B1FFFDF7C9FE00264FF47A7004
:10485000FBF7A6FF0020FBF70FFF0020FBF7F6FE9B
:10486000FBF786FF64210020FFF712FF00BF74E012
:10487000FFF79CF9012D02D10025FBF767FE4EB929
:104880000020FFF753F850B1FBF796FEFBF770FFDF
:10489000012504E00020FFF749F800B10125FFF7EA
:1048A00063F90446002C58D00D2C42D008DC012CB2
:1048B0000DD0042C17D0072C21D00A2C4BD129E085
:1048C000102C45D0132C44D0162C44D142E03C4847
:1048D000407818B90120FBF7B9FE02E00020FBF791
:1048E000B5FE012538E00126012136A0FEF7AAFD1C
:1048F00036A0FEF7A7FD4248FBF752FF2CE0FBF77E
:1049000063FF002601212FA0FEF79CFD3DA0FEF7CE
:1049100099FD21E02A480078062804DA2848007822
:10492000401C2749087026490878FBF7A5FE012599
:1049300012E023480078002804DD21480078401E5A
:104940001F4908701E490878FBF796FE012503E011
:1049500002E001E000E000BF00BF89E7BDD3CAD597
:10496000B5BDB4AEBFDAC3FCC1EE310D0A00000024
:10497000BDD3CAD5B5BDB4AEBFDAC3FCC1EE320DEE
:104980000A000000BDD3CAD5B5BDB4AEBFDAC3FCC2
:10499000C1EE330D0A000000BDD3CAD5B5BDB4AE1B
:1049A000BFDAC3FCC1EE340D0A00000048656C6C30
:1049B0006F20576F726C642121210D0A00000000E6
:1049C000A42100201B5B25644100000041443736D0
:1049D0003036BDF8C8EB4649464FB9A4D7F7C4A353
:1049E000CABD20283230304B487A2038CDA8B5C017
:1049F000CDACB2BDB2C9BCAF292E2E2E0D0A00001F
:104A0000400D0300414437363036BDF8C8EBC6D5FB
:104A1000CDA8B9A4D7F7C4A3CABD28302E3573B624
:104A2000A8CAB138CDA8B5C0CDACB2BDB2C9BCAF73
:104A3000292E2E2E0D0A0000002002400001000049
:104A40000008024000200000001C0240100000008E
:104A5000001802400400000000140240000400009E
:104A6000001802400800000000180240800000000A
:104A700000200240000800006273705F537461728E
:104A80007454696D6572006273705F5374617274FF
:104A90004175746F54696D6572006273705F537411
:104AA0006F7054696D65720000000000040008001A
:104AB0000C000000000000C1814001C0804101C025
:104AC000804100C1814001C0804100C1814000C1DE
:104AD000814001C0804101C0804100C1814000C1CE
:104AE000814001C0804100C1814001C0804101C0BE
:104AF000804100C1814001C0804100C1814000C1AE
:104B0000814001C0804100C1814001C0804101C09D
:104B1000804100C1814000C1814001C0804101C08D
:104B2000804100C1814001C0804100C1814000C17D
:104B3000814001C0804101C0804100C1814000C16D
:104B4000814001C0804100C1814001C0804101C05D
:104B5000804100C1814000C1814001C0804101C04D
:104B6000804100C1814001C0804100C1814000C13D
:104B7000814001C0804100C1814001C0804101C02D
:104B8000804100C1814001C0804100C1814000C11D
:104B9000814001C0804101C0804100C1814000C10D
:104BA000814001C0804100C1814001C0804101C0FD
:104BB000804100C1814000C0C101C30302C2C606DA
:104BC00007C705C5C404CC0C0DCD0FCFCE0E0ACA45
:104BD000CB0BC90908C8D81819D91BDBDA1A1EDE95
:104BE000DF1FDD1D1CDC14D4D515D71716D6D21245
:104BF00013D311D1D010F03031F133F3F23236F655
:104C0000F737F53534F43CFCFD3DFF3F3EFEFA3A04
:104C10003BFB39F9F83828E8E929EB2B2AEAEE2E94
:104C20002FEF2DEDEC2CE42425E527E7E62622E204
:104C3000E323E12120E0A06061A163A3A26266A654
:104C4000A767A56564A46CACAD6DAF6F6EAEAA6AC4
:104C50006BAB69A9A86878B8B979BB7B7ABABE7E14
:104C60007FBF7DBDBC7CB47475B577B7B67672B2C4
:104C7000B373B17170B05090915193535292965654
:104C80005797559594549C5C5D9D5F9F9E5E5A9A84
:104C90009B5B99595898884849894B8B8A4A4E8E14
:104CA0008F4F8D4D4C8C4484854587474686824284
:104CB00043834181804000000000000000000102A9
:104CC00003040607080900000000010203040000B5
:104CD000F04C000800000020400000009C34000858
:104CE000304D000840000020103A0000AC340008AD
:104CF00000000000000000000000000000000000B4
:104D000000000000000000000000000000000000A3
:104D10000000000000000000000000001000000083
:104D2000010000000024F40000000000000000006A
:04000005080001AD41
:00000001FF
